:020000040000FA
:10000000000000EB240000EB2C008FE2000C90E8D5
:1000100000A08AE000B08BE001704AE20B005AE1D8
:100020000000001A1C0000EB0F00BAE818E04FE2D5
:10003000010013E303F0471013FF2FE1E801000074
:10004000F80100000030B0E30040B0E30050B0E33E
:100050000060B0E3102052E27800A128FCFFFF8A84
:10006000822EB0E13000A128003081451EFF2FE133
:1000700001C08FE21CFF2FE11FB5059886460FBC1B
:10008000009C02B07047000001C08FE21CFF2FE10E
:1000900030B47546AE4630BC704700003C0000EB03
:1000A0000210A0E1F1FFFFEB1CC09FE50FC08CE048
:1000B00001001CE30DE08F120FE0A0011CFF2FE1F7
:1000C00001C08FE21CFF2FE100F094F888000000CF
:1000D0007847C04603002DE9EAFFFFEB0300BDE8C7
:1000E000490000EB0C009FE50C109FE504209FE504
:1000F00008309FE51EFF2FE16000004060040040D3
:10010000600000400010A0E10000A0E30020A0E398
:100110000000A0E1050000EA0020A0E3000000EAE2
:10012000012082E2000052E1FCFFFFBA010080E200
:10013000010050E1F7FFFFBA1EFF2FE10000A0E32E
:100140003C109FE5000081E50000E0E3A018C1E15C
:10015000080081E5090000EA0000E0E324109FE5C3
:10016000040081E56400A0E3E5FFFFEB0000E0E3AD
:1001700010109FE50C0081E56400A0E3E0FFFFEBB9
:10018000F4FFFFEA00C002E0008002E07047704721
:10019000704700000E50A0E1180000EB05E0A0E160
:1001A0000050B0E10D10A0E10A30A0E10700C0E36B
:1001B00000D0A0E160D08DE220402DE9C8FFFFEB28
:1001C0002040BDE80060A0E30070A0E30080A0E351
:1001D00000B0A0E30710C1E305C0A0E1C009ACE88E
:1001E000C009ACE8C009ACE8C009ACE801D0A0E1A6
:1001F0001EFF2FE10400C046C0462000FFF768FF45
:1002000000009FE51EFF2FE10000004001C08FE2CB
:100210001CFF2FE101491820ABDFFEE7260002009A
:100220001EFF2FE13402000000000040E80400003F
:040230004400000086
:0400000500000000F7
:00000001FF
