:020000040000FA
:10000000000000EB240000EB2C008FE2000C90E8D5
:1000100000A08AE000B08BE001704AE20B005AE1D8
:100020000000001A1C0000EB0F00BAE818E04FE2D5
:10003000010013E303F0471013FF2FE1D00100008C
:10004000E00100000030B0E30040B0E30050B0E356
:100050000060B0E3102052E27800A128FCFFFF8A84
:10006000822EB0E13000A128003081451EFF2FE133
:1000700001C08FE21CFF2FE11FB5059886460FBC1B
:10008000009C02B07047000001C08FE21CFF2FE10E
:1000900030B47546AE4630BC70470000360000EB09
:1000A0000210A0E1F1FFFFEB1CC09FE50FC08CE048
:1000B00001001CE30DE08F120FE0A0011CFF2FE1F7
:1000C00001C08FE21CFF2FE100F088F880000000E3
:1000D0007847C04603002DE9EAFFFFEB0300BDE8C7
:1000E000430000EB0C009FE50C109FE504209FE50A
:1000F00008309FE51EFF2FE16000004060040040D3
:10010000600000400010A0E10000A0E3050000EA4C
:100110000020A0E3000000EA012082E2000052E19A
:10012000FCFFFFBA010080E2010050E1F7FFFFBAD7
:100130001EFF2FE1FF00A0E330109FE5080081E5DE
:10014000090000EAFF00A0E320109FE5040081E51C
:10015000FA0FA0E3EAFFFFEBFF00A0E30C109FE51E
:100160000C0081E5FA0FA0E3E5FFFFEBF4FFFFEAE7
:10017000008002E070477047704700000E50A0E119
:10018000180000EB05E0A0E10050B0E10D10A0E187
:100190000A30A0E10700C0E300D0A0E160D08DE20A
:1001A00020402DE9CEFFFFEB2040BDE80060A0E33A
:1001B0000070A0E30080A0E300B0A0E30710C1E35B
:1001C00005C0A0E1C009ACE8C009ACE8C009ACE8D2
:1001D000C009ACE801D0A0E11EFF2FE10400C04639
:1001E000C0462000FFF774FF00009FE51EFF2FE1CF
:1001F0000000004001C08FE21CFF2FE101491820E0
:10020000ABDFFEE7260002001EFF2FE11C0200000C
:0C02100000000040E80400004400000072
:0400000500000000F7
:00000001FF
