:020000040000FA
:10000000000000EB240000EB2C008FE2000C90E8D5
:1000100000A08AE000B08BE001704AE20B005AE1D8
:100020000000001A1C0000EB0F00BAE818E04FE2D5
:10003000010013E303F0471013FF2FE1BC010000A0
:10004000CC0100000030B0E30040B0E30050B0E36A
:100050000060B0E3102052E27800A128FCFFFF8A84
:10006000822EB0E13000A128003081451EFF2FE133
:1000700001C08FE21CFF2FE11FB5059886460FBC1B
:10008000009C02B07047000001C08FE21CFF2FE10E
:1000900030B47546AE4630BC70470000310000EB0E
:1000A0000210A0E1F1FFFFEB1CC09FE50FC08CE048
:1000B00001001CE30DE08F120FE0A0011CFF2FE1F7
:1000C00001C08FE21CFF2FE100F07EF8500000001D
:1000D0007847C04603002DE9EAFFFFEB0300BDE8C7
:1000E0003E0000EB0C009FE50C109FE504209FE50F
:1000F00008309FE51EFF2FE16000004060040040D3
:10010000600000404C009FE54C109FE5180081E521
:100110000000A0E31C0081E5080081E50C0000EA76
:1001200034009FE5000090E5010800E20110A0E323
:10013000200831E10300000A0108A0E318109FE540
:10014000140081E5020000EA0108A0E308109FE521
:100150001C0081E5F1FFFFEA0000FFFF008002E0E4
:1001600070477047704700000E50A0E1180000EB88
:1001700005E0A0E10050B0E10D10A0E10A30A0E1DF
:100180000700C0E300D0A0E160D08DE220402DE95F
:10019000D3FFFFEB2040BDE80060A0E30070A0E3C8
:1001A0000080A0E300B0A0E30710C1E305C0A0E118
:1001B000C009ACE8C009ACE8C009ACE8C009ACE8CB
:1001C00001D0A0E11EFF2FE10400C046C046200080
:1001D000FFF77EFF00009FE51EFF2FE100000040BB
:1001E00001C08FE21CFF2FE101491820ABDFFEE7C1
:1001F000260002001EFF2FE1080200000000004060
:08020000E804000044000000C6
:0400000500000000F7
:00000001FF
