:020000040000FA
:10000000000000EB240000EB2C008FE2000C90E8D5
:1000100000A08AE000B08BE001704AE20B005AE1D8
:100020000000001A1C0000EB0F00BAE818E04FE2D5
:10003000010013E303F0471013FF2FE1F00100006C
:10004000000200000030B0E30040B0E30050B0E335
:100050000060B0E3102052E27800A128FCFFFF8A84
:10006000822EB0E13000A128003081451EFF2FE133
:1000700001C08FE21CFF2FE11FB5059886460FBC1B
:10008000009C02B07047000001C08FE21CFF2FE10E
:1000900030B47546AE4630BC704700003E0000EB01
:1000A0000210A0E1F1FFFFEB1CC09FE50FC08CE048
:1000B00001001CE30DE08F120FE0A0011CFF2FE1F7
:1000C00001C08FE21CFF2FE100F098F87C000000D7
:1000D0007847C04603002DE9EAFFFFEB0300BDE8C7
:1000E0004B0000EB0C009FE50C109FE504209FE502
:1000F00008309FE51EFF2FE16000004060040040D3
:10010000600000400000A0E3050000EA0010A0E34A
:10011000000000EA011081E2960F51E3FCFFFFBAF4
:10012000010080E2640050E3F7FFFFBA1EFF2FE1F9
:100130000000A0E34C109FE5000081E50100E0E332
:10014000A018C1E1080081E5020C80E20C0081E505
:100150000B0000EA30009FE5000090E5010010E38D
:100160000700000A24009FE51C109FE5040081E5BC
:10017000E3FFFFEB14009FE50C109FE50C0081E509
:10018000DFFFFFEBF2FFFFEA00C002E0008002E0C9
:10019000FE01000070477047704700000E50A0E15C
:1001A000180000EB05E0A0E10050B0E10D10A0E167
:1001B0000A30A0E10700C0E300D0A0E160D08DE2EA
:1001C00020402DE9C6FFFFEB2040BDE80060A0E322
:1001D0000070A0E30080A0E300B0A0E30710C1E33B
:1001E00005C0A0E1C009ACE8C009ACE8C009ACE8B2
:1001F000C009ACE801D0A0E11EFF2FE10400C04619
:10020000C0462000FFF764FF00009FE51EFF2FE1BE
:100210000000004001C08FE21CFF2FE101491820BF
:10022000ABDFFEE7260002001EFF2FE13C020000CC
:0C02300000000040E80400004400000052
:0400000500000000F7
:00000001FF
